S00E0000426F775469652E73726563CC
S113000010C0D9C229C00BC327C026C0FDC124C05B
S113001023C022C021C020C01FC01EC01DC01CC0E0
S11300201BC011241FBECFE5D2E0DEBFCDBF10E060
S1130030A0E6B0E0E6E3F6E002C005900D92AC382D
S1130040B107D9F720E0ACE8B0E001C01D92AF3AA7
S1130050B207E1F702D0EDC2D3CF85B7877E8061C6
S113006085BF8BB780628BBF80B5816080BDB99A34
S1130070C19AC09A85B7826085BF8BB780648BBFF5
S11300801FBC1EBC1DBC1CBC8CE790E09BBD8ABD84
S11300908EB588608EBD8EB582608EBD619A78946F
S11300A021E0ABE9B0E0B09939C080918C008111B6
S11300B037C0809198009091990040918E005091A2
S11300C08F00841B950B893C910550F120938C0083
S11300D0809198009091990090938F0080938E0066
S11300E0809192008F5F8093920010928D0080E047
S11300F090E0FC01E556FF4F108201968431910592
S1130100C1F74091920050E08091600090E0019727
S1130110841795072CF41092920002C010928C0060
S1130120809192008130C9F138F0823009F474C0B2
S1130130833009F43CC165C1409198005091990005
S11301408091900090919100481B590B809162001E
S113015090E08417950708F0A6CF809198009091BD
S11301609900909391008093900080918D00843148
S113017030F4E82FF0E0E556FF4F208305C0E82F68
S1130180F0E0E957FF4F10828F5F893218F48093B3
S11301908D0089CF10928D0086CF409198005091A8
S11301A099008091900090919100481B590B809187
S11301B0630090E08417950708F075CF809198004C
S11301C090919900909391008093900030918D00CC
S11301D0832F90E084319105B4F401C00496FC01AE
S11301E0E556FF4F2083009721F453961C925397B2
S11301F0F5CFFC01E656FF4F1082AC014C5F5F4F18
S1130200443151055CF33F5F343018F430938D0072
S11302104ACF10928D0047CF409198005091990099
S11302208091900090919100481B590B809161003E
S113023090E08417950708F036CF8091980090914C
S11302409900909391008093900080918D0081118A
S11302500BC02C9353962C93539752962C935297EE
S113026051962C93519712C0813039F411962C93E6
S1130270119750962C93509712C0823039F41296ED
S11302802C9312971F962C931F9712C0833039F426
S113029013962C9313971E962C931E9712C084309A
S11302A039F414962C9314971D962C931D9712C011
S11302B0853039F415962C9315971C962C931C971E
S11302C018C0863039F416962C9316971B962C93E7
S11302D01B971CC0873069F417962C9317971896B0
S11302E02C93189719962C9319971A962C931A975E
S11302F016C0883059F41C9253961C925397529608
S11303001C92529751961C92519712C0893039F41D
S113031011961C92119750961C92509712C08A30D5
S113032039F412961C9212971F961C921F9712C0B2
S11303308B3039F413961C9213971E961C921E97B9
S113034012C08C3039F414961C9214971D961C928A
S11303501D9715C08D3039F415961C9215971C966F
S11303601C921C971BC08E3051F416961C92169743
S11303701B961C921B978F5F80938D0094CE8F30B9
S113038069F417961C92179718961C921897199649
S11303901C9219971A961C921A9706C08F5F809325
S11303A08D00803108F47FCE10928D007CCE8AB30C
S11303B080778ABBC1983FE986E891E0315080405C
S11303C09040E1F700C0000085B7806285BF85B723
S11303D0806285BF889585B78F7D85BF85B78F7D02
S11303E085BF1092920010928D0080E090E0FC0195
S11303F0E556FF4F1082019684319105C1F7C19AE9
S113040052CE109292004FCE1F920F920FB60F92BF
S113041011242F933F934F935F936F937F938F9305
S11304209F93AF93BF93CF93DF93EF93FF93809109
S11304309800909199000196909399008093980068
S113044080919A00882309F453C080919800909178
S113045099002091960030919700821B930B893C60
S1130460910508F48CC010929A0089C08AB38077F1
S11304708ABB8BB380778BBB90919300809195005E
S11304808917E8F49AB3E901008002C0CC0FDD1F9C
S11304900A94E2F7B9010C9002C0660F771F0A9420
S11304A0E2F78C2F862B892B8ABB6BB3C9010080A2
S11304B002C0880F991F0A94E2F7862B8BBB86E053
S11304C08A95F1F700C031961196E417F50771F695
S11304D08BB380778BBB809193008F5F8093930065
S11304E0809193008E3008F453C01092930050C052
S11304F08AB380778ABB8BB380778BBBE0919400FF
S1130500F0E0E556FF4F8081882369F1A0919400C3
S1130510E09194006AB3B0E0AC59BF4F81E090E041
S11305209C010C9002C0220F331F0A94E2F7F0E002
S1130530E858FF4FAC01008002C0440F551F0A94D5
S1130540E2F7242B352B262B2ABBE09194002BB306
S1130550F0E0EC59FF4F008002C0880F991F0A9405
S1130560E2F7822B8BBB809194008F5F8093940081
S113057080919400843160F01092940009C0E4E604
S1130580F0E0A8E7B0E048E750E021E030E06ECFCB
S1130590FF91EF91DF91CF91BF91AF919F918F9197
S11305A07F916F915F914F913F912F910F900FBE6B
S11305B00F901F9018951F920F920FB60F9211244F
S11305C02F933F938F939F9381E080939A00809120
S11305D09800909199002091960030919700821B89
S11305E0930B029758F08091980090919900209174
S11305F0960030919700821B80939500809198001B
S11306009091990090939700809396009F918F9179
S11306103F912F910F900FBE0F901F9018951F922E
S11306200F920FB60F9211240F900FBE0F901F90D0
S10906301895F894FFCFB9
S1130636046432640102030700020307000103078E
S1130646000102070001020300000000010101018C
S10F065602020202030303030707070764
S9030000FC
