S01900004669667468456C656D656E7442616467652E737265637D
S113000019C033C032C031C030C02FC0A5C02DC00C
S11300102CC02BC02AC029C028C027C026C025C098
S113002024C049C052C05AC062C06AC072C07AC0FB
S113003080C086C011241FBECFE5D2E0DEBFCDBF95
S113004010E0A0E6B0E0E8E1F5E002C005900D9212
S1130050A236B107D9F720E0A2E6B0E001C01D92B4
S1130060A038B207E1F758D155C2CACF80917100C8
S113007090917200A0917300B09174000196A11D3B
S1130080B11D8093710090937200A0937300B0939C
S113009074008AB3807F8ABB8BB3807F8BBBE09173
S11300A062008E2F90E08930910508F04DC0FC016C
S11300B0EF5EFF4F099480917F00882309F446C0C6
S11300C08AB383608ABBD89A41C080917E0088231A
S11300D0E9F18AB383608ABBD99A38C080917D00E4
S11300E08823A1F18AB386608ABBD99A2FC08091F4
S11300F07C00882359F18AB386608ABBDA9A26C0C9
S113010080917B00882311F18AB385608ABBDA9AD7
S11301101DC080917A008823C9F08AB385608ABBA8
S1130120D89A14C080917900882381F0DB9AD39AFD
S11301300DC080917800882349F0DB98D39A06C0DB
S11301408FEF8093620002C010926200809162007F
S11301508F5F8093620008951F920F920FB60F92E3
S113016011242F933F934F935F936F937F938F93B8
S11301709F93AF93BF93EF93FF9378DFFF91EF913A
S1130180BF91AF919F918F917F916F915F914F91AB
S11301903F912F910F900FBE0F901F90189597B11C
S11301A0987F8770892B87B9369A3699FECF84B1A8
S11301B095B1089584E0F3DF875292408539910523
S11301C020F481E08093660002C01092660085E00E
S11301D0E6DF8E5791098539910520F481E08093FB
S11301E0650002C01092650086E0D9DF8654914014
S11301F08539910520F481E08093640002C0109257
S1130200640087E0CCDF9C012F5E32402539310544
S113021020F421E02093670002C0109267008D371C
S1130220910508F076C083ED90E30197F1F700C0E3
S1130230000087E0B4DF8D37910508F06CC0809131
S11302406800811168C08091710090917200A09142
S11302507300B091740040916D0050916E006091F4
S11302606F0070917000841B950BA60BB70B893C33
S11302709105A105B10508F44EC081E080936800A2
S11302808091710090917200A0917300B0917400FC
S113029080936D0090936E00A0936F00B0937000F4
S11302A0809161008F5F833018F48093610003C0F4
S11302B081E08093610010926300809171009091BD
S11302C07200A0917300B0917400809369009093C0
S11302D06A00A0936B00B0936C006091610080E0B1
S11302E090E00AD11092790010927B0010927D0068
S11302F010927F001092780010927A0010927C0085
S113030010927E0010927700109276001092750081
S1130310089510926800089580E090E0E5D08093FD
S1130320610086B3876086BB87B3876087BB8BB366
S1130330806F8BBB1FBC1EBC1DBC1CBC8CE790E03B
S11303409BBD8ABD8EB588608EBD8EB582608EBD24
S1130350619A789486B1836086B9379AC1E02ADFBE
S113036080916100813021F0823009F46FC0A4C013
S1130370409171005091720060917300709174000B
S11303808091690090916A00A0916B00B0916C001B
S1130390481759076A077B0708F490C08C599F4F88
S11303A0AF4FBF4F8093690090936A00A0936B0096
S11303B0B0936C00809163008F5F80936300909191
S11303C06000981718F4109263000EC08230F1F0A8
S11303D028F4882349F0813081F070C0843031F1F1
S11303E0E0F0853061F16AC0C0937900C0937F006A
S11303F0C0937D00C0937B0061C0C0937800C0931C
S11304007A00C0937C00C0937E0058C0C0937700EC
S1130410C0937600C093750051C010927900109279
S11304207F0010927D0010927B0048C010927800EB
S113043010927A0010927C0010927E003FC01092BD
S11304407700109276001092750038C09091660083
S1130450909379008091670080937F0030916500CC
S113046030937B002091640020937D008823A9F0C1
S1130470992399F0222389F0332379F0C0937700EC
S1130480C0937600C0937500C0937800C0937A003F
S1130490C0937C00C0937E0011C01092770010922C
S11304A07600109275001092780010927A001092E3
S11304B07C0010927E0002C0C0936100809177009E
S11304C0811102C0C09A01C0C09880917600811148
S11304D002C0C19A01C0C19880917500811102C007
S11304E0C29A3DCFC2983BCFE199FECF9FBB8EBB52
S11304F0E09A99278DB30895262FE199FECF1CBA6F
S11305009FBB8EBB2DBB0FB6F894E29AE19A0FBE47
S10B051001960895F894FFCF51
S10505180501D7
S9030000FC
