S019000053637265776472697665722042616467652E7372656388
S1130000A4C9BEC9BDC9BCC9BBC9BAC980CEB8C917
S1130010B7C9B6C9B5C9B4C9B3C9B2C9B1C9B0C9F8
S1130020AFC9E11210127F107E0FE50E840E730D1E
S1130030EA0CD90B400B6F0AD60905094408AB0733
S113004012078906F0055F04CE0235029C01030104
S113005052006428009301280093012800290028F5
S113006000460128002900280046012800930128A1
S113007000290028004601280093012800290028AF
S11300800046012800930128009301280029002834
S11300900046012800290028004601280093012871
S11300A0002900280046012800C0202800930128C8
S11300B0009301280029002800460128002900286F
S11300C00046012800930128002900280046012841
S11300D000930128002900280046012800930128E4
S11300E0009301280029002800460128002900283F
S11300F00046012800930128002900280046012811
S113010000000068B00259012A002E002A002E00C7
S11301102A002E002A0086002A0086002A002E00CB
S11301202A002E002A002E002A002E002A002E006B
S11301302A002E002A0086002A0086002A002E00AB
S11301402A002E002A002E002A002E002A002E004B
S11301502A002E002A002E002A002E002A002E003B
S11301602A0086002A0086002A0086002A008600CB
S11301702A0086002A0086002A0086002A008600BB
S11301802A002E002A002E002A00690DB202AC00BB
S11301902A00691CB202AC002A000000686702331E
S11301A001260027002600270026007A00260027C3
S11301B00026007A002600270026002700260027B4
S11301C0002600330126007A002600270026007A44
S11301D0002600270026007A002600270026002794
S11301E000260027002600040768023301260027A2
S11301F0002600270026007A002600270026007A21
S113020000260027002600270026002700260033AA
S11302100126007A002600270026007A00260027FF
S11302200026007A00260027002600270026002743
S1130230002600000068B40262012F0029002F008C
S113024029002F007C002F0029002F0029002F00F7
S113025029002F0029002F0029002F007C002F00E7
S11302607C002F0029002F007C002F007C002F0031
S11302707C002F007C002F007C002F0029002F0021
S113028029002F0029002F007C002F0029002F00B7
S113029029002F0029002F0029002F007C002F00A7
S11302A07C002F007C002F0029002F007C002F00F1
S11302B07C002F007C002F007C002F00510CB60224
S11302C0AF002F00261DB602AF003E00000068FB01
S11302D0007C0020001F0020001F0020005E002082
S11302E0001F0020005E0020001F0020001F0020CF
S11302F0001F0020005E0020005E0020001F002080
S1130300001F0020001F0020005E0020005E00206F
S1130310001F0020001F0020001F0020001F0020DD
S1130320001F0020001F0020001F0020001F0020CD
S1130330001F0020001F0020001F0020005E00207E
S1130340001F0020001F0020001F0020001F0020AD
S1130350005E0020001F0020001F0020005E00201F
S1130360001F0020001F0020001F0020001F00208D
S1130370005E0020001F0020005E0020001F0020FF
S1130380001F0020001F0020001F0020001F00206D
S1130390001F002000D30DFC007C0020001F002063
S11303A0001F0020005E0020001F0020005E0020CF
S11303B0001F0020001F0020001F0020005E0020FE
S11303C0005E0020001F0020001F0020001F0020EE
S11303D0005E0020005E0020001F0020001F00209F
S11303E0001F0020001F0020001F0020001F00200D
S11303F0001F0020001F0020001F0020001F0020FD
S1130400001F0020005E0020001F0020001F0020AD
S1130410001F0020001F0020005E0020001F00209D
S1130420001F0020005E0020001F0020001F00208D
S1130430001F0020001F0020005E0020001F00207D
S1130440005E0020001F0020001F0020001F00206D
S1130450001F0020001F0020001F00200000006873
S11304608E0249012800290028007B002800290069
S113047028007B002800290028007B002800290090
S113048028007B0028007B002800290028007B002E
S11304902800290028007B002800290028007B0070
S11304A028002900280029002800290028007B00B2
S11304B028007B0028007B00280029002800290050
S11304C02800290028007B0028007B002800290040
S11304D0280029002800290028007B0028007B0030
S11304E028007B002800B5078E024A012800290055
S11304F028007B002800290028007B002800290010
S113050028007B002800290028007B0028007B00AD
S11305102800290028007B002800290028007B00EF
S11305202800290028007B00280029002800290031
S11305302800290028007B0028007B0028007B007D
S113054028002900280029002800290028007B0011
S113055028007B0028002900280029002800290001
S113056028007B0028007B0028007B002800B507BA
S11305708E024A012800290028007B002800290057
S113058028007B002800290028007B00280029007F
S113059028007B0028007B002800290028007B001D
S11305A02800290028007B002800290028007B005F
S11305B028002900280029002800290028007B00A1
S11305C028007B0028007B0028002900280029003F
S11305D02800290028007B0028007B00280029002F
S11305E0280029002800290028007B00280000009A
S11305F064D00266012E002C002E002C002E002C4C
S1130600002E008B002E008B002E008B002E002C61
S1130610002E002C002E008B002E008B002E008B51
S1130620002E002C002E002C002E002C002E008BFF
S1130630002E008B002E002C002E008B002E002C90
S1130640002E002C002E008B002E002C002E002CDF
S1130650002E002C002E008B002E002C002E008B70
S1130660002E008B002E002C002E008B002E008B01
S1130670002E008B002E00F80CD002B4002E00B126
S11306801DD002B4002E0000007414009000140069
S113069091001400910014003D0014003D0014006A
S11306A03D001400910014003D0014003D001400AE
S11306B0910014003D0014003D0014003D0014009E
S11306C03D0014003D0014003D001400C106140058
S11306D09100140091001400910014003D001400D6
S11306E03D0014003D001400910014003D0014006E
S11306F03D001400910014003D0014003D0014005E
S11307003D0014003D0014003D0014003D001400A1
S1130710000068B4025C012B002B002B0082002B2C
S1130720002B002B002B002B002B002B002B002B6D
S11307300082002B002B002B0082002B002B002BAF
S11307400082002B0082002B0082002B0082002BF1
S1130750002B002B0082002B0082002B002B002B8F
S1130760002B002B002B002B002B002B002B002B2D
S1130770002B002B002B002B002B002B0082002BC6
S11307800082002B0082002B0082002B0082002BB1
S11307900082002B0082002B00DE0BB602AC002B83
S11307A000EC1CB602AC002B00000068B4025C0133
S11307B02B002B002B002B002B002B002B002B00DD
S11307C02B002B002B0082002B0082002B002B001F
S11307D02B0082002B0082002B0082002B00820061
S11307E02B0082002B002B002B002B002B008200FF
S11307F02B0082002B0082002B002B002B002B00EF
S11308002B002B002B002B002B002B002B002B008C
S11308102B002B002B002B002B0082002B008200CE
S11308202B0082002B0082002B0082002B00820010
S11308302B00DE0BB602AC002B00EC1CB602AC00A5
S11308402B00000068B00258012A0029002A002960
S1130850002A007F002A007F002A007F002A002946
S1130860002A0029002A0029002A007F002A0029E2
S1130870002A0029002A0029002A0029002A007FD2
S1130880002A007F002A0029002A0029002A0029C2
S1130890002A007F002A007F002A007F002A002906
S11308A0002A007F002A007F002A007F002A007FA0
S11308B0002A0029002A007F002A0029002A002992
S11308C0002A007F002A0029002A0029002A002982
S11308D0002A007F002A0029002A007F002A007FC6
S11308E0002A0029002A007F002A007F002A007FB6
S11308F0002A00EC06B10257012A00291CB1025754
S1130900012A00000068000101014000C30040000A
S113091041004000C3004000C300400041004000CB
S1130920C300400041004000C3004000C300400039
S113093041004000410040004100400041004000AF
S1130940C300400041004000C3004000410040009B
S113095041004000C300400041004000410040000D
S1130960C3004000C3004000C3004000DA09000196
S113097002014000C300400041004000C3004000A9
S1130980C300400041004000C3004000410040005B
S1130990C3004000C300400041004000410040004B
S11309A04100400041004000C300400041004000BD
S11309B0C30040004100400041004000C30040002B
S11309C04100400041004000C3004000C30040001B
S11309D0C3004000000068A90253012B0029002B2A
S11309E00029002B0029002B0029002B0083002B59
S11309F00029002B0083002B0029002B0083002BEF
S1130A000083002B0083002B0083002B0029002B84
S1130A100083002B0029002B0083002B0083002B74
S1130A200083002B0083002B0029002B0083002B64
S1130A300029002B0029002B0029002B0029002B62
S1130A400029002B0029002B0083002B0029002BF8
S1130A500083002B0083002B0083002B00230CAAAF
S1130A6002AC002B00181CAA02AC002A000000688B
S1130A708802410128007900280079002800290013
S1130A80280029002800290028002900280029001E
S1130A90280029002800790028007900280079001E
S1130AA028002900280079002800290028002900AE
S1130AB0280029002800DF06280079002800790092
S1130AC028002900280029002800290028002900DE
S1130AD0280029002800290028007900280079002E
S1130AE0280079002800290028007900280029001E
S1130AF028002900280029002800DF0628007900A2
S1130B00280079002800290028002900280029004D
S1130B10280029002800290028002900280079003D
S1130B20280079002800790028002900280079008D
S1130B302800290028002900280029002800000096
S1130B4068B4025A012A0082002A0082002A008224
S1130B50002A002A002A002A002A002A002A002A41
S1130B60002A0082002A002A002A0082002A002A81
S1130B70002A002A002A002A002A0082002A002AC9
S1130B80002A002A002A002A002A002A002A002A11
S1130B90002A002A002A002A002A0082002A008251
S1130BA0002A0082002A0082002A0082002A008291
S1130BB0002A0082002A0082002A002A002A002A31
S1130BC0002A002A002A00DE0BB602AC002A00D953
S1130BD01CB602AC002A00000068B4025A012C00C2
S1130BE082002C002C002C002C002C002C002C004B
S1130BF082002C0082002C0082002C002C002C008F
S1130C002C002C0082002C0082002C0082002C007E
S1130C102C002C002C002C002C002C0082002C001A
S1130C202C002C0082002C002C002C0082002C00B4
S1130C302C002C002C002C0082002C002C002C00FA
S1130C4082002C002C002C0082002C002C002C0094
S1130C5082002C0082002C002C002C0082002C002E
S1130C600D0CB60258012C0082002C002C002C0024
S1130C702C002C002C002C0082002C0082002C0064
S1130C8082002C002C002C002C002C0082002C0054
S1130C9082002C0082002C002C002C002C002C0044
S1130CA02C002C0082002C002C002C0082002C0034
S1130CB02C002C0082002C002C002C002C002C007A
S1130CC082002C002C002C0082002C002C002C0014
S1130CD082002C002C002C0082002C0082002C00AE
S1130CE02C002C0082002C0000006628002500281F
S1130CF000400128008F0128002500280040012819
S1130D000025002800400128008F01280025002824
S1130D1000400128008F01280025002800400128F8
S1130D20008F0128008F012800250028001B25289A
S1130D300025002800400128008F012800250028F4
S1130D40004001280025002800400128008F0128C8
S1130D500025002800400128008F012800250028D4
S1130D6000400128008F0128008F01280025002859
S1130D70000000685D0167012800840028008400E9
S1130D802800840028002F0028002F0028002F00AE
S1130D9028002F0028002F00280084002800840049
S1130DA02800840028002F0028002F0028002F008E
S1130DB028002F0028002F0028002F00280084007E
S1130DC028002F0028002F0028002F0028002F00C3
S1130DD028002F0028002F002800840028002F005E
S1130DE0280084002800840028008400280084004F
S1130DF028008400280084002800BD0D5D016701DF
S1130E0028008400280084002800840028002F0083
S1130E1028002F0028002F0028002F0028002F0072
S1130E2028008400280084002800840028002F0063
S1130E3028002F0028002F0028002F0028002F0052
S1130E4028002F002800840028002F0028002F00ED
S1130E5028002F0028002F0028002F0028002F0032
S1130E602800840028002F00280084002800840023
S1130E7028008400280084002800840028008400BE
S1130E802800000070400040008000400040004006
S1130E90004000400040004000400040004000404E
S1130EA000400040004000B8004000400080004086
S1130EB00040000E19400040008000400040004007
S1130EC0004000400040004000400040004000401E
S1130ED0004000400040008000400040008000408E
S1130EE0004000000068B4025C012B002B002B00C2
S1130EF02B002B002B002B002B002B002B002B0096
S1130F002B002B0082002B002B002B0082002B00D7
S1130F1082002B0082002B0082002B0082002B0019
S1130F2082002B002B002B0082002B002B002B00B7
S1130F3082002B002B002B002B002B0082002B00A7
S1130F402B002B002B002B002B002B0082002B00EE
S1130F502B002B0082002B0082002B002B002B0087
S1130F6082002B0082002B0082002B00DE0BB602D5
S1130F70AC002B00EC1CB602AC002B000000681582
S1130F80008E0016003D0016003D0016003D0016C0
S1130F90003D0016003D0016008E0016008E00165F
S1130FA0003D0016008E0016003D0016003D0016A0
S1130FB0003D0016008E0016003D001600AC0D1614
S1130FC0008E0016003D0016003D0016003D001680
S1130FD0003D0016008E0016003D0016003D001670
S1130FE0008E0016003D0016008E0016008E0016BE
S1130FF0008E0016003D0016008E001600AC0D1683
S1131000008E0016003D0016003D0016003D00163F
S1131010003D0016003D0016008E0016008E0016DE
S1131020003D0016008E0016003D0016003D00161F
S1131030003D0016008E0016003D001600AC0D1693
S1131040008E0016003D0016003D0016003D0016FF
S1131050003D0016008E0016003D0016003D0016EF
S1131060008E0016003D0016008E0016008E00163D
S1131070008E0016003D0016008E00160000006C65
S113108003018100200021002000620020002100D3
S11310902000210020002100200021002000210048
S11310A02000210020002100200021002000210038
S11310B020002100200021002000620020002100E7
S11310C02000210020002100200021002000210018
S11310D02000210020002100200021002000210008
S11310E020006200200021002000210020002100B7
S11310F020002100200021002000210020002100E8
S11311002000210020006200200021002000620055
S11311102000620020006200200062002000210004
S11311202000210020006200200021002000620035
S113113020006200200062002000620020002100E4
S1131140200062002000CA15030182002000210053
S11311502000620020002100200021002000210046
S11311602000210020002100200021002000210077
S11311702000210020002100200021002000210067
S11311802000620020002100200021002000210016
S11311902000210020002100200021002000210047
S11311A020002100200021002000620020002100F6
S11311B02000210020002100200021002000210027
S11311C020002100200021002000210020006200D6
S11311D02000210020006200200062002000620044
S11311E02000620020002100200021002000620075
S11311F02000210020006200200062002000620024
S11312002000620020002100200062002000000075
S113121046C901C8013A00E4003A00E4003A00E497
S1131220003A00E4003A0071003A0071003A00E428
S1131230003A0071003A00E4003A0071003A00E418
S1131240003A0071003A0071003A0071003A0071EE
S1131250003A0071003A00E4003A00E4003A0071F8
S1131260003A00E4003A0071003A00E4003A0071E8
S1131270003A00E4003A009103C901C8013A00E4CD
S1131280003A00E4003A00E4003A00E4003A007155
S1131290003A0071003A00E4003A0071003A00E4B8
S11312A0003A0071003A00E4003A0071003A00711B
S11312B0003A0071003A0071003A0071003A00E40B
S11312C0003A00E4003A0071003A00E4003A007188
S11312D0003A00E4003A0071003A00E4003A0000E9
S11312E00068B8002D005C002D002E002D005C006D
S11312F02D002E002D005C002D002E002D002E0050
S11313002D005C002D002E002D002E002D002E003F
S11313102D002E001408B8002D005C002D002E00B6
S11313202D005C002D002E002D005C002D002E00F1
S11313302D002E002D005C002D002E002D002E000F
S11313402D002E002D002E00000011241FBECFE51D
S1131350D2E0DEBFCDBF10E0A0E6B0E0ECE2FFE1FA
S113136002C005900D92AA36B107D9F720E0AAE68B
S1131370B0E001C01D92AF3AB207E1F7DBD1D4C5AA
S11313803FC6CF92DF92EF92FF920F931F931616F0
S113139017065CF541E050E0082E02C0440F551FCB
S11313A00A94E2F7F42EA42FA09540E050E000E068
S11313B010E09801B0E29BB39F299BBBB7B9369A62
S11313C03699FECF9BB39A239BBB87B9369A36993D
S11313D0FECFE4B1F5B10E0F1F1F211D311D4F5F6C
S11313E05F4F6417750739F703C000E010E09801F8
S11313F06B01770FEE08FF08C901B801A701960138
S11314003BD5C9011F910F91FF90EF90DF90CF90D2
S1131410089561E070E084E090E0B3DF20919200F1
S113142030919300821B930B9093950080939400CA
S113143061E070E085E090E0A4DF20918E003091BF
S11314408F00821B930B909391008093900061E036
S113145070E086E090E095DF20918A0030918B0067
S1131460821B930B90938D0080938C0061E070E05D
S113147087E090E086DF2091960030919700821BF0
S1131480930B90939900809398008091940090918D
S113149095008536910534F081E080938700809330
S11314A0890002C010928700809190009091910071
S11314B08536910534F081E080938600809389001D
S11314C002C01092860080918C0090918D00853628
S11314D0910534F081E0809385008093890002C0F7
S11314E0109285008091980090919900853691051D
S11314F03CF021E0209384008436910524F008C058
S11315001092840005C081E08093830010928400CF
S113151081E090918900913009F080E091E0209180
S1131520940030919500243631050CF090E0982316
S113153081E02091900030919100243631050CF027
S113154080E0892381F081E020918C0030918D002E
S1131550243631050CF080E0882329F081E0809363
S11315608800109289000895EF92FF920F931F93C1
S1131570CF93DF931092AE0080916900882309F421
S1131580C5C0E0E0EE24E394FE2C08E610E0C0E2DF
S1131590DEE4F0E0EE0FFF1FEE5DFF4F85919491C6
S11315A09C01FC01849190E09BBD8ABD1092A50032
S11315B08091A50090E0880F991F880F991FFC0166
S11315C03196E20FF31F459154915093AD0040932F
S11315D0AC00FC013396E20FF31F85919491909334
S11315E0AB008093AA00F0929C0050939B00409320
S11315F09A0080919A0090919B00892BD1F71092C8
S11316009C00D8984091AA005091AB0050939B0045
S113161040939A0080919A0090919B00892BD1F776
S11316208091A5008F5F8093A500452B09F0C0CF62
S1131630D898EFDE80918600813011F4DA9A01C0E7
S1131640DA9880918500813011F4D99A01C0D99833
S113165080918700813019F4F0926A0005C080916E
S11316606A00813009F05CC0D99ADA9ADB9A209139
S113167089008E2D90918800913009F080E08823B4
S1131680E9F08E2D213009F080E08823B9F08091B3
S11316906A00813099F410928800D998DA98DB981E
S11316A080918800811105C0B4DE80918800882370
S11316B0D9F31092880010926A0028C08E2D909160
S11316C06A00911180E0882359F08E2D211180E069
S11316D0882331F0D998DA98DB981092880016C0E4
S11316E01BBD0ABDD0939B00C0939A0080919A00C1
S11316F090919B00892BD1F7E091AE00EF5FE093CE
S1131700AE0080916900E81708F443CFD998DA98BD
S1131710DB9810926A0088E690E09BBD8ABD03C006
S113172020918900CBCFDF91CF911F910F91FF9032
S1131730EF9008958AB38F608ABBBA9A1FBC1EBC0F
S11317401DBC1CBC88E690E09BBD8ABD8EB588603C
S11317508EBD8EB581608EBD619A80B7806880BF72
S113176080B7836080BF80E886BF789486B1866046
S113177086B9379A62E370E087E090E002DE9093E6
S113178097008093960062E370E084E090E0F9DDD6
S1131790909393008093920062E370E085E090E080
S11317A0F0DD90938F0080938E0062E370E086E01A
S11317B090E0E7DD90938B0080938A0080E090E0D6
S11317C099D380936300209163009091630081E03A
S11317D0243008F480E0811105C081E0911180E09B
S11317E0882319F081E080936300C1E00F2EF3E0B9
S11317F08F2EF02D01E010E00F2EFAE0DF2EF02DF9
S11318000F2EF2E39F2EF02DD7E00F2EF5E0AF2E32
S1131810F02D0F2EF4E1EF2EF02D0F2EF4E6BF2E57
S1131820F02D0F2EF8E2FF2EF02D0F2EF8ECCF2E18
S1131830F02D4091A1005091A2006091A3007091FD
S1131840A4008091780090917900A0917A00B091E1
S11318507B0084179507A607B70708F0B3C18091EA
S1131860A1009091A200A091A300B091A4002091A6
S11318706400820F911DA11DB11D80937800909387
S11318807900A0937A00B0937B00C3DD809185003A
S1131890813029F5D99A80916300823081F08330B8
S11318A0E1F0813009F5D093660010937D00009338
S11318B07C00F092770083B7836083BF15C0D09318
S11318C0660010937D0000937C00F092770083B74C
S11318D0836083BFC092600007C046DE05C080916C
S11318E06300823009F0D99880918600813029F50F
S11318F0DA9A80916300823081F08330E1F08130A4
S113190009F5D093660010937D0000937C00E0926B
S1131910770083B7836083BF15C0A09266001093DD
S11319207D0000937C00E092770083B7836083BFDF
S1131930B092600007C018DE05C080916300823059
S113194009F0DA9880918700813029F5DB9A80913B
S11319506300823081F08330E1F0813009F5D09367
S1131960660010937D0000937C00D092770083B7CB
S1131970836083BF15C08092660010937D0000933E
S11319807C00D092770083B7836083BF909260001D
S113199007C0EADD05C080916300823009F0DB985E
S11319A080918800813039F41092880010927D0073
S11319B010927C0013BE80918400813009F0EAC04B
S11319C080916300823031F08330E1F08130D9F4CA
S11319D0D99A19C0DA9ADB98D99880916B009091C2
S11319E06C00A0916D00B0916E0088539F4FAF4F73
S11319F0BF4F80936B0090936C00A0936D00B093E5
S1131A006E0001C0DB9A8091A6009091A700A0917E
S1131A10A800B091A900892B8A2B8B2B81F480918B
S1131A20A1009091A200A091A300B091A400809382
S1131A30A6009093A700A093A800B093A90040919A
S1131A40A1005091A2006091A3007091A400809124
S1131A50A6009091A700A091A800B091A900481BEE
S1131A60590B6A0B7B0B8091610090916200092EE7
S1131A70000CAA0BBB0B84179507A607B70708F041
S1131A80A1C0809163008F5F8093630080916300A5
S1131A90843010F0C09363006091630080E090E0B4
S1131AA031D2D998DA98DB9880916300823051F171
S1131AB0833009F44BC0813009F084C0D99A409135
S1131AC0A1005091A2006091A3007091A4004C5019
S1131AD05E4F6F4F7F4F409370005093710060933F
S1131AE07200709373008091A1009091A200A09164
S1131AF0A300B091A40084179507A607B70798F32D
S1131B00D99860C0DA9A4091A1005091A2006091E6
S1131B10A3007091A4004C505E4F6F4F7F4F4093D1
S1131B207000509371006093720070937300809101
S1131B30A1009091A200A091A300B091A4008417E9
S1131B409507A607B70798F3DA983CC0DB9A40914B
S1131B50A1005091A2006091A3007091A4004C5088
S1131B605E4F6F4F7F4F40937000509371006093AE
S1131B707200709373008091A1009091A200A091D3
S1131B80A300B091A40084179507A607B70798F39C
S1131B90DB9818C08091A6009091A700A091A8009E
S1131BA0B091A900181619061A061B065CF41092C7
S1131BB0A6001092A7001092A8001092A900D9982C
S1131BC0DA98DB9880917C0090917D00019709F070
S1131BD047C04091A1005091A2006091A300709170
S1131BE0A40080917F0090918000A0918100B09129
S1131BF0820084179507A607B707C0F58091A10056
S1131C009091A200A091A300B091A400209166003D
S1131C10820F911DA11DB11D80937F0090938000C0
S1131C20A0938100B093820080916500813051F4CB
S1131C3080917E008F5F80937E008A3260F01092E4
S1131C40650009C080917E00815080937E008111DF
S1131C5002C0C093650080917E0080939F0006C0FF
S1131C6010929F00C093650010927E0080916300E3
S1131C70823009F0DECD4091A1005091A200609124
S1131C80A3007091A40080916B0090916C00A091CE
S1131C906D00B0916E0084179507A607B70708F08A
S1131CA0C8CD8091A1009091A200A091A300B09111
S1131CB0A40020916000820F911DA11DB11D80938D
S1131CC06B0090936C00A0936D00B0936E008091B4
S1131CD06F008F5F80936F00853018F0C0936F00A2
S1131CE00CC0823061F020F4813009F0A2CD05C02F
S1131CF0833041F0843049F09CCDD99A9ACDDA9A58
S1131D00D99897CDDB9ADA9894CDDB9892CD1F922F
S1131D100F920FB60F9211242F938F939F93AF932B
S1131D20BF93809163008330B1F480919C00813033
S1131D3009F489BB80919A0090919B00892B09F446
S1131D4073C080919A0090919B00019790939B009F
S1131D5080939A0069C0809167008130A9F48091D2
S1131D609D008F5F80939D0080919D00803110F0D5
S1131D701092670080916800813021F49BB3892719
S1131D808BBB14C0D89812C080919D008150809361
S1131D909D0080919D00811108C081E080936700BF
S1131DA080919E008F5F80939E00D89890919E00B2
S1131DB080919F00891778F41092680080919E00AA
S1131DC08B3248F010929E0080919F00882319F076
S1131DD081E080936800809176008F5F8093760025
S1131DE090917600809177008917F0F41092760034
S1131DF08091740090917500019690937500809382
S1131E007400811522E092073CF010927500109244
S1131E10740080E090E007C08F3F910521F01CF032
S1131E20819586BF01C086BF8091A0008F5F80939B
S1131E30A0008091A0008B34A9F48091A10090911E
S1131E40A200A091A300B091A4000196A11DB11D10
S1131E508093A1009093A200A093A300B093A40048
S1131E601092A000BF91AF919F918F912F910F90ED
S1131E700FBE0F901F901895052E97FB16F4009433
S1131E800FD057FD05D014D007FC02D046F408C08B
S1131E9050954095309521953F4F4F4F5F4F089592
S1131EA090958095709561957F4F8F4F9F4F0895C2
S1131EB0A1E21A2EAA1BBB1BFD010DC0AA1FBB1F4A
S1131EC0EE1FFF1FA217B307E407F50720F0A21BBC
S1131ED0B30BE40BF50B661F771F881F991F1A9429
S1131EE069F760957095809590959B01AC01BD0153
S1131EF0CF010895E199FECF9FBB8EBBE09A99274D
S1131F008DB30895262FE199FECF9FBB8EBBE09A37
S1131F1001970DB2021639F01CBA2DBB0FB6F89416
S10F1F20E29AE19A0FBE0895F894FFCFF6
S10D1F2C64FA0001320107010118F4
S9030000FC
